8=FIX.4.4|9=75|35=A|34=1092|49=TESTBUY1|52=20180920-18:24:59.643|56=TESTSELL1|98=0|108=60|10=178|
8=FIX.4.4|9=148|35=D|34=1080|49=TESTBUY1|52=20180920-18:14:19.508|56=TESTSELL1|11=636730640278898634|15=USD|21=2|38=7000|40=1|54=1|55=MSFT|60=20180920-18:14:19.492|10=092|
8=FIX.4.4|9=289|35=8|34=1090|49=TESTSELL1|52=20180920-18:23:53.671|56=TESTBUY1|6=113.35|11=636730640278898634|14=3500.0000000000|15=USD|17=20636730646335310000|21=2|31=113.35|32=3500|37=20636730646335310000|38=7000|39=1|40=1|54=1|55=MSFT|60=20180920-18:23:53.531|150=F|151=3500|453=1|448=BRK2|447=D|452=1|10=151|
8=FIX.4.4|9=63|35=5|34=1091|49=TESTBUY1|52=20180920-18:24:58.675|56=TESTSELL1|10=138|
8=FIX.4.2|9=74|35=A|34=978|49=TESTSELL3|52=20190206-16:29:19.208|56=TESTBUY3|98=0|108=60|10=137|
8=FIX.4.2|9=163|35=D|34=972|49=TESTBUY3|52=20190206-16:25:10.403|56=TESTSELL3|11=141636850670842269979|21=2|38=100|40=1|54=1|55=AAPL|60=20190206-16:25:08.968|207=TO|6000=TEST1234|10=106|
8=FIX.4.2|9=271|35=8|34=974|49=TESTSELL3|52=20190206-16:26:09.059|56=TESTBUY3|6=174.51|11=141636850670842269979|14=100.0000000000|17=3636850671684357979|20=0|21=2|31=174.51|32=100.0000000000|37=1005448|38=100|39=2|40=1|54=1|55=AAPL|60=20190206-16:26:08.435|150=2|151=0.0000000000|10=194|
8=FIX.4.2|9=62|35=5|34=977|49=TESTSELL3|52=20190206-16:28:51.518|56=TESTBUY3|10=092|



